{
  "_format": "hh3-artifact-1",
  "contractName": "CertificateNFT",
  "sourceName": "contracts/CertificateNFT.sol",
  "abi": [
    {
      "inputs": [],
      "stateMutability": "nonpayable",
      "type": "constructor"
    },
    {
      "inputs": [
        {
          "internalType": "address",
          "name": "sender",
          "type": "address"
        },
        {
          "internalType": "uint256",
          "name": "tokenId",
          "type": "uint256"
        },
        {
          "internalType": "address",
          "name": "owner",
          "type": "address"
        }
      ],
      "name": "ERC721IncorrectOwner",
      "type": "error"
    },
    {
      "inputs": [
        {
          "internalType": "address",
          "name": "operator",
          "type": "address"
        },
        {
          "internalType": "uint256",
          "name": "tokenId",
          "type": "uint256"
        }
      ],
      "name": "ERC721InsufficientApproval",
      "type": "error"
    },
    {
      "inputs": [
        {
          "internalType": "address",
          "name": "approver",
          "type": "address"
        }
      ],
      "name": "ERC721InvalidApprover",
      "type": "error"
    },
    {
      "inputs": [
        {
          "internalType": "address",
          "name": "operator",
          "type": "address"
        }
      ],
      "name": "ERC721InvalidOperator",
      "type": "error"
    },
    {
      "inputs": [
        {
          "internalType": "address",
          "name": "owner",
          "type": "address"
        }
      ],
      "name": "ERC721InvalidOwner",
      "type": "error"
    },
    {
      "inputs": [
        {
          "internalType": "address",
          "name": "receiver",
          "type": "address"
        }
      ],
      "name": "ERC721InvalidReceiver",
      "type": "error"
    },
    {
      "inputs": [
        {
          "internalType": "address",
          "name": "sender",
          "type": "address"
        }
      ],
      "name": "ERC721InvalidSender",
      "type": "error"
    },
    {
      "inputs": [
        {
          "internalType": "uint256",
          "name": "tokenId",
          "type": "uint256"
        }
      ],
      "name": "ERC721NonexistentToken",
      "type": "error"
    },
    {
      "inputs": [
        {
          "internalType": "address",
          "name": "owner",
          "type": "address"
        }
      ],
      "name": "OwnableInvalidOwner",
      "type": "error"
    },
    {
      "inputs": [
        {
          "internalType": "address",
          "name": "account",
          "type": "address"
        }
      ],
      "name": "OwnableUnauthorizedAccount",
      "type": "error"
    },
    {
      "anonymous": false,
      "inputs": [
        {
          "indexed": true,
          "internalType": "address",
          "name": "owner",
          "type": "address"
        },
        {
          "indexed": true,
          "internalType": "address",
          "name": "approved",
          "type": "address"
        },
        {
          "indexed": true,
          "internalType": "uint256",
          "name": "tokenId",
          "type": "uint256"
        }
      ],
      "name": "Approval",
      "type": "event"
    },
    {
      "anonymous": false,
      "inputs": [
        {
          "indexed": true,
          "internalType": "address",
          "name": "owner",
          "type": "address"
        },
        {
          "indexed": true,
          "internalType": "address",
          "name": "operator",
          "type": "address"
        },
        {
          "indexed": false,
          "internalType": "bool",
          "name": "approved",
          "type": "bool"
        }
      ],
      "name": "ApprovalForAll",
      "type": "event"
    },
    {
      "anonymous": false,
      "inputs": [
        {
          "indexed": true,
          "internalType": "address",
          "name": "previousOwner",
          "type": "address"
        },
        {
          "indexed": true,
          "internalType": "address",
          "name": "newOwner",
          "type": "address"
        }
      ],
      "name": "OwnershipTransferred",
      "type": "event"
    },
    {
      "anonymous": false,
      "inputs": [
        {
          "indexed": true,
          "internalType": "address",
          "name": "from",
          "type": "address"
        },
        {
          "indexed": true,
          "internalType": "address",
          "name": "to",
          "type": "address"
        },
        {
          "indexed": true,
          "internalType": "uint256",
          "name": "tokenId",
          "type": "uint256"
        }
      ],
      "name": "Transfer",
      "type": "event"
    },
    {
      "inputs": [
        {
          "internalType": "address",
          "name": "to",
          "type": "address"
        },
        {
          "internalType": "uint256",
          "name": "tokenId",
          "type": "uint256"
        }
      ],
      "name": "approve",
      "outputs": [],
      "stateMutability": "nonpayable",
      "type": "function"
    },
    {
      "inputs": [
        {
          "internalType": "address",
          "name": "owner",
          "type": "address"
        }
      ],
      "name": "balanceOf",
      "outputs": [
        {
          "internalType": "uint256",
          "name": "",
          "type": "uint256"
        }
      ],
      "stateMutability": "view",
      "type": "function"
    },
    {
      "inputs": [
        {
          "internalType": "uint256",
          "name": "tokenId",
          "type": "uint256"
        }
      ],
      "name": "getApproved",
      "outputs": [
        {
          "internalType": "address",
          "name": "",
          "type": "address"
        }
      ],
      "stateMutability": "view",
      "type": "function"
    },
    {
      "inputs": [
        {
          "internalType": "uint256",
          "name": "tokenId",
          "type": "uint256"
        }
      ],
      "name": "getCertificateDetails",
      "outputs": [
        {
          "components": [
            {
              "internalType": "string",
              "name": "studentName",
              "type": "string"
            },
            {
              "internalType": "string",
              "name": "degreeName",
              "type": "string"
            },
            {
              "internalType": "uint256",
              "name": "issueDate",
              "type": "uint256"
            }
          ],
          "internalType": "struct CertificateNFT.Certificate",
          "name": "",
          "type": "tuple"
        }
      ],
      "stateMutability": "view",
      "type": "function"
    },
    {
      "inputs": [
        {
          "internalType": "address",
          "name": "owner",
          "type": "address"
        },
        {
          "internalType": "address",
          "name": "operator",
          "type": "address"
        }
      ],
      "name": "isApprovedForAll",
      "outputs": [
        {
          "internalType": "bool",
          "name": "",
          "type": "bool"
        }
      ],
      "stateMutability": "view",
      "type": "function"
    },
    {
      "inputs": [
        {
          "internalType": "address",
          "name": "student",
          "type": "address"
        },
        {
          "internalType": "string",
          "name": "studentName",
          "type": "string"
        },
        {
          "internalType": "string",
          "name": "degreeName",
          "type": "string"
        }
      ],
      "name": "issueCertificate",
      "outputs": [],
      "stateMutability": "nonpayable",
      "type": "function"
    },
    {
      "inputs": [],
      "name": "name",
      "outputs": [
        {
          "internalType": "string",
          "name": "",
          "type": "string"
        }
      ],
      "stateMutability": "view",
      "type": "function"
    },
    {
      "inputs": [],
      "name": "owner",
      "outputs": [
        {
          "internalType": "address",
          "name": "",
          "type": "address"
        }
      ],
      "stateMutability": "view",
      "type": "function"
    },
    {
      "inputs": [
        {
          "internalType": "uint256",
          "name": "tokenId",
          "type": "uint256"
        }
      ],
      "name": "ownerOf",
      "outputs": [
        {
          "internalType": "address",
          "name": "",
          "type": "address"
        }
      ],
      "stateMutability": "view",
      "type": "function"
    },
    {
      "inputs": [],
      "name": "renounceOwnership",
      "outputs": [],
      "stateMutability": "nonpayable",
      "type": "function"
    },
    {
      "inputs": [
        {
          "internalType": "address",
          "name": "from",
          "type": "address"
        },
        {
          "internalType": "address",
          "name": "to",
          "type": "address"
        },
        {
          "internalType": "uint256",
          "name": "tokenId",
          "type": "uint256"
        }
      ],
      "name": "safeTransferFrom",
      "outputs": [],
      "stateMutability": "nonpayable",
      "type": "function"
    },
    {
      "inputs": [
        {
          "internalType": "address",
          "name": "from",
          "type": "address"
        },
        {
          "internalType": "address",
          "name": "to",
          "type": "address"
        },
        {
          "internalType": "uint256",
          "name": "tokenId",
          "type": "uint256"
        },
        {
          "internalType": "bytes",
          "name": "data",
          "type": "bytes"
        }
      ],
      "name": "safeTransferFrom",
      "outputs": [],
      "stateMutability": "nonpayable",
      "type": "function"
    },
    {
      "inputs": [
        {
          "internalType": "address",
          "name": "operator",
          "type": "address"
        },
        {
          "internalType": "bool",
          "name": "approved",
          "type": "bool"
        }
      ],
      "name": "setApprovalForAll",
      "outputs": [],
      "stateMutability": "nonpayable",
      "type": "function"
    },
    {
      "inputs": [
        {
          "internalType": "bytes4",
          "name": "interfaceId",
          "type": "bytes4"
        }
      ],
      "name": "supportsInterface",
      "outputs": [
        {
          "internalType": "bool",
          "name": "",
          "type": "bool"
        }
      ],
      "stateMutability": "view",
      "type": "function"
    },
    {
      "inputs": [],
      "name": "symbol",
      "outputs": [
        {
          "internalType": "string",
          "name": "",
          "type": "string"
        }
      ],
      "stateMutability": "view",
      "type": "function"
    },
    {
      "inputs": [
        {
          "internalType": "uint256",
          "name": "tokenId",
          "type": "uint256"
        }
      ],
      "name": "tokenURI",
      "outputs": [
        {
          "internalType": "string",
          "name": "",
          "type": "string"
        }
      ],
      "stateMutability": "view",
      "type": "function"
    },
    {
      "inputs": [
        {
          "internalType": "address",
          "name": "from",
          "type": "address"
        },
        {
          "internalType": "address",
          "name": "to",
          "type": "address"
        },
        {
          "internalType": "uint256",
          "name": "tokenId",
          "type": "uint256"
        }
      ],
      "name": "transferFrom",
      "outputs": [],
      "stateMutability": "nonpayable",
      "type": "function"
    },
    {
      "inputs": [
        {
          "internalType": "address",
          "name": "newOwner",
          "type": "address"
        }
      ],
      "name": "transferOwnership",
      "outputs": [],
      "stateMutability": "nonpayable",
      "type": "function"
    }
  ],
  "bytecode": "0x608060405234801562000010575f80fd5b50336040518060400160405280601481526020017f56657269436861696e43657274696669636174650000000000000000000000008152506040518060400160405280600381526020017f5643430000000000000000000000000000000000000000000000000000000000815250815f90816200008e919062000455565b508060019081620000a0919062000455565b5050505f73ffffffffffffffffffffffffffffffffffffffff168173ffffffffffffffffffffffffffffffffffffffff160362000116575f6040517f1e4fbdf70000000000000000000000000000000000000000000000000000000081526004016200010d91906200057c565b60405180910390fd5b62000127816200012e60201b60201c565b5062000597565b5f60065f9054906101000a900473ffffffffffffffffffffffffffffffffffffffff1690508160065f6101000a81548173ffffffffffffffffffffffffffffffffffffffff021916908373ffffffffffffffffffffffffffffffffffffffff1602179055508173ffffffffffffffffffffffffffffffffffffffff168173ffffffffffffffffffffffffffffffffffffffff167f8be0079c531659141344cd1fd0a4f28419497f9722a3daafe3b4186f6b6457e060405160405180910390a35050565b5f81519050919050565b7f4e487b71000000000000000000000000000000000000000000000000000000005f52604160045260245ffd5b7f4e487b71000000000000000000000000000000000000000000000000000000005f52602260045260245ffd5b5f60028204905060018216806200026d57607f821691505b60208210810362000283576200028262000228565b5b50919050565b5f819050815f5260205f209050919050565b5f6020601f8301049050919050565b5f82821b905092915050565b5f60088302620002e77fffffffffffffffffffffffffffffffffffffffffffffffffffffffffffffffff82620002aa565b620002f38683620002aa565b95508019841693508086168417925050509392505050565b5f819050919050565b5f819050919050565b5f6200033d6200033762000331846200030b565b62000314565b6200030b565b9050919050565b5f819050919050565b62000358836200031d565b62000370620003678262000344565b848454620002b6565b825550505050565b5f90565b6200038662000378565b620003938184846200034d565b505050565b5b81811015620003ba57620003ae5f826200037c565b60018101905062000399565b5050565b601f8211156200040957620003d38162000289565b620003de846200029b565b81016020851015620003ee578190505b62000406620003fd856200029b565b83018262000398565b50505b505050565b5f82821c905092915050565b5f6200042b5f19846008026200040e565b1980831691505092915050565b5f6200044583836200041a565b9150826002028217905092915050565b6200046082620001f1565b67ffffffffffffffff8111156200047c576200047b620001fb565b5b62000488825462000255565b62000495828285620003be565b5f60209050601f831160018114620004cb575f8415620004b6578287015190505b620004c2858262000438565b86555062000531565b601f198416620004db8662000289565b5f5b828110156200050457848901518255600182019150602085019450602081019050620004dd565b8683101562000524578489015162000520601f8916826200041a565b8355505b6001600288020188555050505b505050505050565b5f73ffffffffffffffffffffffffffffffffffffffff82169050919050565b5f620005648262000539565b9050919050565b620005768162000558565b82525050565b5f602082019050620005915f8301846200056b565b92915050565b6127aa80620005a55f395ff3fe608060405234801561000f575f80fd5b5060043610610114575f3560e01c80638da5cb5b116100a0578063b88d4fde1161006f578063b88d4fde146102dc578063c87b56dd146102f8578063e985e9c514610328578063e98ac4d814610358578063f2fde38b1461037457610114565b80638da5cb5b1461025457806395d89b4114610272578063a22cb46514610290578063a901fe5e146102ac57610114565b806323b872dd116100e757806323b872dd146101b257806342842e0e146101ce5780636352211e146101ea57806370a082311461021a578063715018a61461024a57610114565b806301ffc9a71461011857806306fdde0314610148578063081812fc14610166578063095ea7b314610196575b5f80fd5b610132600480360381019061012d9190611b02565b610390565b60405161013f9190611b47565b60405180910390f35b610150610471565b60405161015d9190611bea565b60405180910390f35b610180600480360381019061017b9190611c3d565b610500565b60405161018d9190611ca7565b60405180910390f35b6101b060048036038101906101ab9190611cea565b61051b565b005b6101cc60048036038101906101c79190611d28565b610531565b005b6101e860048036038101906101e39190611d28565b610630565b005b61020460048036038101906101ff9190611c3d565b61064f565b6040516102119190611ca7565b60405180910390f35b610234600480360381019061022f9190611d78565b610660565b6040516102419190611db2565b60405180910390f35b610252610716565b005b61025c610729565b6040516102699190611ca7565b60405180910390f35b61027a610751565b6040516102879190611bea565b60405180910390f35b6102aa60048036038101906102a59190611df5565b6107e1565b005b6102c660048036038101906102c19190611c3d565b6107f7565b6040516102d39190611ede565b60405180910390f35b6102f660048036038101906102f1919061202a565b6109c1565b005b610312600480360381019061030d9190611c3d565b6109e6565b60405161031f9190611bea565b60405180910390f35b610342600480360381019061033d91906120aa565b610a4c565b60405161034f9190611b47565b60405180910390f35b610372600480360381019061036d9190612186565b610ada565b005b61038e60048036038101906103899190611d78565b610b6e565b005b5f7f80ac58cd000000000000000000000000000000000000000000000000000000007bffffffffffffffffffffffffffffffffffffffffffffffffffffffff1916827bffffffffffffffffffffffffffffffffffffffffffffffffffffffff1916148061045a57507f5b5e139f000000000000000000000000000000000000000000000000000000007bffffffffffffffffffffffffffffffffffffffffffffffffffffffff1916827bffffffffffffffffffffffffffffffffffffffffffffffffffffffff1916145b8061046a575061046982610bf2565b5b9050919050565b60605f805461047f9061223b565b80601f01602080910402602001604051908101604052809291908181526020018280546104ab9061223b565b80156104f65780601f106104cd576101008083540402835291602001916104f6565b820191905f5260205f20905b8154815290600101906020018083116104d957829003601f168201915b5050505050905090565b5f61050a82610c5b565b5061051482610ce1565b9050919050565b61052d8282610528610d1a565b610d21565b5050565b5f73ffffffffffffffffffffffffffffffffffffffff168273ffffffffffffffffffffffffffffffffffffffff16036105a1575f6040517f64a0ae920000000000000000000000000000000000000000000000000000000081526004016105989190611ca7565b60405180910390fd5b5f6105b483836105af610d1a565b610d33565b90508373ffffffffffffffffffffffffffffffffffffffff168173ffffffffffffffffffffffffffffffffffffffff161461062a578382826040517f64283d7b0000000000000000000000000000000000000000000000000000000081526004016106219392919061226b565b60405180910390fd5b50505050565b61064a83838360405180602001604052805f8152506109c1565b505050565b5f61065982610c5b565b9050919050565b5f8073ffffffffffffffffffffffffffffffffffffffff168273ffffffffffffffffffffffffffffffffffffffff16036106d1575f6040517f89c62b640000000000000000000000000000000000000000000000000000000081526004016106c89190611ca7565b60405180910390fd5b60035f8373ffffffffffffffffffffffffffffffffffffffff1673ffffffffffffffffffffffffffffffffffffffff1681526020019081526020015f20549050919050565b61071e610f3e565b6107275f610fc5565b565b5f60065f9054906101000a900473ffffffffffffffffffffffffffffffffffffffff16905090565b6060600180546107609061223b565b80601f016020809104026020016040519081016040528092919081815260200182805461078c9061223b565b80156107d75780601f106107ae576101008083540402835291602001916107d7565b820191905f5260205f20905b8154815290600101906020018083116107ba57829003601f168201915b5050505050905090565b6107f36107ec610d1a565b8383611088565b5050565b6107ff611a7c565b5f73ffffffffffffffffffffffffffffffffffffffff1661081f836111f1565b73ffffffffffffffffffffffffffffffffffffffff1603610875576040517f08c379a000000000000000000000000000000000000000000000000000000000815260040161086c906122ea565b60405180910390fd5b60085f8381526020019081526020015f206040518060600160405290815f820180546108a09061223b565b80601f01602080910402602001604051908101604052809291908181526020018280546108cc9061223b565b80156109175780601f106108ee57610100808354040283529160200191610917565b820191905f5260205f20905b8154815290600101906020018083116108fa57829003601f168201915b505050505081526020016001820180546109309061223b565b80601f016020809104026020016040519081016040528092919081815260200182805461095c9061223b565b80156109a75780601f1061097e576101008083540402835291602001916109a7565b820191905f5260205f20905b81548152906001019060200180831161098a57829003601f168201915b505050505081526020016002820154815250509050919050565b6109cc848484610531565b6109e06109d7610d1a565b8585858561122a565b50505050565b60606109f182610c5b565b505f6109fb6113d6565b90505f815111610a195760405180602001604052805f815250610a44565b80610a23846113ec565b604051602001610a34929190612342565b6040516020818303038152906040525b915050919050565b5f60055f8473ffffffffffffffffffffffffffffffffffffffff1673ffffffffffffffffffffffffffffffffffffffff1681526020019081526020015f205f8373ffffffffffffffffffffffffffffffffffffffff1673ffffffffffffffffffffffffffffffffffffffff1681526020019081526020015f205f9054906101000a900460ff16905092915050565b610ae2610f3e565b5f60075f815480929190610af590612392565b919050559050610b0584826114b6565b60405180606001604052808481526020018381526020014281525060085f8381526020019081526020015f205f820151815f019081610b449190612576565b506020820151816001019081610b5a9190612576565b506040820151816002015590505050505050565b610b76610f3e565b5f73ffffffffffffffffffffffffffffffffffffffff168173ffffffffffffffffffffffffffffffffffffffff1603610be6575f6040517f1e4fbdf7000000000000000000000000000000000000000000000000000000008152600401610bdd9190611ca7565b60405180910390fd5b610bef81610fc5565b50565b5f7f01ffc9a7000000000000000000000000000000000000000000000000000000007bffffffffffffffffffffffffffffffffffffffffffffffffffffffff1916827bffffffffffffffffffffffffffffffffffffffffffffffffffffffff1916149050919050565b5f80610c66836111f1565b90505f73ffffffffffffffffffffffffffffffffffffffff168173ffffffffffffffffffffffffffffffffffffffff1603610cd857826040517f7e273289000000000000000000000000000000000000000000000000000000008152600401610ccf9190611db2565b60405180910390fd5b80915050919050565b5f60045f8381526020019081526020015f205f9054906101000a900473ffffffffffffffffffffffffffffffffffffffff169050919050565b5f33905090565b610d2e83838360016114d3565b505050565b5f80610d3e846111f1565b90505f73ffffffffffffffffffffffffffffffffffffffff168373ffffffffffffffffffffffffffffffffffffffff1614610d7f57610d7e818486611692565b5b5f73ffffffffffffffffffffffffffffffffffffffff168173ffffffffffffffffffffffffffffffffffffffff1614610e0a57610dbe5f855f806114d3565b600160035f8373ffffffffffffffffffffffffffffffffffffffff1673ffffffffffffffffffffffffffffffffffffffff1681526020019081526020015f205f82825403925050819055505b5f73ffffffffffffffffffffffffffffffffffffffff168573ffffffffffffffffffffffffffffffffffffffff1614610e8957600160035f8773ffffffffffffffffffffffffffffffffffffffff1673ffffffffffffffffffffffffffffffffffffffff1681526020019081526020015f205f82825401925050819055505b8460025f8681526020019081526020015f205f6101000a81548173ffffffffffffffffffffffffffffffffffffffff021916908373ffffffffffffffffffffffffffffffffffffffff160217905550838573ffffffffffffffffffffffffffffffffffffffff168273ffffffffffffffffffffffffffffffffffffffff167fddf252ad1be2c89b69c2b068fc378daa952ba7f163c4a11628f55a4df523b3ef60405160405180910390a4809150509392505050565b610f46610d1a565b73ffffffffffffffffffffffffffffffffffffffff16610f64610729565b73ffffffffffffffffffffffffffffffffffffffff1614610fc357610f87610d1a565b6040517f118cdaa7000000000000000000000000000000000000000000000000000000008152600401610fba9190611ca7565b60405180910390fd5b565b5f60065f9054906101000a900473ffffffffffffffffffffffffffffffffffffffff1690508160065f6101000a81548173ffffffffffffffffffffffffffffffffffffffff021916908373ffffffffffffffffffffffffffffffffffffffff1602179055508173ffffffffffffffffffffffffffffffffffffffff168173ffffffffffffffffffffffffffffffffffffffff167f8be0079c531659141344cd1fd0a4f28419497f9722a3daafe3b4186f6b6457e060405160405180910390a35050565b5f73ffffffffffffffffffffffffffffffffffffffff168273ffffffffffffffffffffffffffffffffffffffff16036110f857816040517f5b08ba180000000000000000000000000000000000000000000000000000000081526004016110ef9190611ca7565b60405180910390fd5b8060055f8573ffffffffffffffffffffffffffffffffffffffff1673ffffffffffffffffffffffffffffffffffffffff1681526020019081526020015f205f8473ffffffffffffffffffffffffffffffffffffffff1673ffffffffffffffffffffffffffffffffffffffff1681526020019081526020015f205f6101000a81548160ff0219169083151502179055508173ffffffffffffffffffffffffffffffffffffffff168373ffffffffffffffffffffffffffffffffffffffff167f17307eab39ab6107e8899845ad3d59bd9653f200f220920489ca2b5937696c31836040516111e49190611b47565b60405180910390a3505050565b5f60025f8381526020019081526020015f205f9054906101000a900473ffffffffffffffffffffffffffffffffffffffff169050919050565b5f8373ffffffffffffffffffffffffffffffffffffffff163b11156113cf578273ffffffffffffffffffffffffffffffffffffffff1663150b7a02868685856040518563ffffffff1660e01b81526004016112889493929190612697565b6020604051808303815f875af19250505080156112c357506040513d601f19601f820116820180604052508101906112c091906126f5565b60015b611344573d805f81146112f1576040519150601f19603f3d011682016040523d82523d5f602084013e6112f6565b606091505b505f81510361133c57836040517f64a0ae920000000000000000000000000000000000000000000000000000000081526004016113339190611ca7565b60405180910390fd5b805160208201fd5b63150b7a0260e01b7bffffffffffffffffffffffffffffffffffffffffffffffffffffffff1916817bffffffffffffffffffffffffffffffffffffffffffffffffffffffff1916146113cd57836040517f64a0ae920000000000000000000000000000000000000000000000000000000081526004016113c49190611ca7565b60405180910390fd5b505b5050505050565b606060405180602001604052805f815250905090565b60605f60016113fa84611755565b0190505f8167ffffffffffffffff81111561141857611417611f06565b5b6040519080825280601f01601f19166020018201604052801561144a5781602001600182028036833780820191505090505b5090505f82602083010190505b6001156114ab578080600190039150507f3031323334353637383961626364656600000000000000000000000000000000600a86061a8153600a85816114a05761149f612720565b5b0494505f8503611457575b819350505050919050565b6114cf828260405180602001604052805f8152506118a6565b5050565b808061150b57505f73ffffffffffffffffffffffffffffffffffffffff168273ffffffffffffffffffffffffffffffffffffffff1614155b1561163d575f61151a84610c5b565b90505f73ffffffffffffffffffffffffffffffffffffffff168373ffffffffffffffffffffffffffffffffffffffff161415801561158457508273ffffffffffffffffffffffffffffffffffffffff168173ffffffffffffffffffffffffffffffffffffffff1614155b801561159757506115958184610a4c565b155b156115d957826040517fa9fbf51f0000000000000000000000000000000000000000000000000000000081526004016115d09190611ca7565b60405180910390fd5b811561163b57838573ffffffffffffffffffffffffffffffffffffffff168273ffffffffffffffffffffffffffffffffffffffff167f8c5be1e5ebec7d5bd14f71427d1e84f3dd0314c0f7b2291e5b200ac8c7c3b92560405160405180910390a45b505b8360045f8581526020019081526020015f205f6101000a81548173ffffffffffffffffffffffffffffffffffffffff021916908373ffffffffffffffffffffffffffffffffffffffff16021790555050505050565b61169d8383836118c9565b611750575f73ffffffffffffffffffffffffffffffffffffffff168373ffffffffffffffffffffffffffffffffffffffff160361171157806040517f7e2732890000000000000000000000000000000000000000000000000000000081526004016117089190611db2565b60405180910390fd5b81816040517f177e802f00000000000000000000000000000000000000000000000000000000815260040161174792919061274d565b60405180910390fd5b505050565b5f805f90507a184f03e93ff9f4daa797ed6e38ed64bf6a1f01000000000000000083106117b1577a184f03e93ff9f4daa797ed6e38ed64bf6a1f01000000000000000083816117a7576117a6612720565b5b0492506040810190505b6d04ee2d6d415b85acef810000000083106117ee576d04ee2d6d415b85acef810000000083816117e4576117e3612720565b5b0492506020810190505b662386f26fc10000831061181d57662386f26fc10000838161181357611812612720565b5b0492506010810190505b6305f5e1008310611846576305f5e100838161183c5761183b612720565b5b0492506008810190505b612710831061186b57612710838161186157611860612720565b5b0492506004810190505b6064831061188e576064838161188457611883612720565b5b0492506002810190505b600a831061189d576001810190505b80915050919050565b6118b08383611989565b6118c46118bb610d1a565b5f85858561122a565b505050565b5f8073ffffffffffffffffffffffffffffffffffffffff168373ffffffffffffffffffffffffffffffffffffffff161415801561198057508273ffffffffffffffffffffffffffffffffffffffff168473ffffffffffffffffffffffffffffffffffffffff16148061194157506119408484610a4c565b5b8061197f57508273ffffffffffffffffffffffffffffffffffffffff1661196783610ce1565b73ffffffffffffffffffffffffffffffffffffffff16145b5b90509392505050565b5f73ffffffffffffffffffffffffffffffffffffffff168273ffffffffffffffffffffffffffffffffffffffff16036119f9575f6040517f64a0ae920000000000000000000000000000000000000000000000000000000081526004016119f09190611ca7565b60405180910390fd5b5f611a0583835f610d33565b90505f73ffffffffffffffffffffffffffffffffffffffff168173ffffffffffffffffffffffffffffffffffffffff1614611a77575f6040517f73c6ac6e000000000000000000000000000000000000000000000000000000008152600401611a6e9190611ca7565b60405180910390fd5b505050565b604051806060016040528060608152602001606081526020015f81525090565b5f604051905090565b5f80fd5b5f80fd5b5f7fffffffff0000000000000000000000000000000000000000000000000000000082169050919050565b611ae181611aad565b8114611aeb575f80fd5b50565b5f81359050611afc81611ad8565b92915050565b5f60208284031215611b1757611b16611aa5565b5b5f611b2484828501611aee565b91505092915050565b5f8115159050919050565b611b4181611b2d565b82525050565b5f602082019050611b5a5f830184611b38565b92915050565b5f81519050919050565b5f82825260208201905092915050565b5f5b83811015611b97578082015181840152602081019050611b7c565b5f8484015250505050565b5f601f19601f8301169050919050565b5f611bbc82611b60565b611bc68185611b6a565b9350611bd6818560208601611b7a565b611bdf81611ba2565b840191505092915050565b5f6020820190508181035f830152611c028184611bb2565b905092915050565b5f819050919050565b611c1c81611c0a565b8114611c26575f80fd5b50565b5f81359050611c3781611c13565b92915050565b5f60208284031215611c5257611c51611aa5565b5b5f611c5f84828501611c29565b91505092915050565b5f73ffffffffffffffffffffffffffffffffffffffff82169050919050565b5f611c9182611c68565b9050919050565b611ca181611c87565b82525050565b5f602082019050611cba5f830184611c98565b92915050565b611cc981611c87565b8114611cd3575f80fd5b50565b5f81359050611ce481611cc0565b92915050565b5f8060408385031215611d0057611cff611aa5565b5b5f611d0d85828601611cd6565b9250506020611d1e85828601611c29565b9150509250929050565b5f805f60608486031215611d3f57611d3e611aa5565b5b5f611d4c86828701611cd6565b9350506020611d5d86828701611cd6565b9250506040611d6e86828701611c29565b9150509250925092565b5f60208284031215611d8d57611d8c611aa5565b5b5f611d9a84828501611cd6565b91505092915050565b611dac81611c0a565b82525050565b5f602082019050611dc55f830184611da3565b92915050565b611dd481611b2d565b8114611dde575f80fd5b50565b5f81359050611def81611dcb565b92915050565b5f8060408385031215611e0b57611e0a611aa5565b5b5f611e1885828601611cd6565b9250506020611e2985828601611de1565b9150509250929050565b5f82825260208201905092915050565b5f611e4d82611b60565b611e578185611e33565b9350611e67818560208601611b7a565b611e7081611ba2565b840191505092915050565b611e8481611c0a565b82525050565b5f606083015f8301518482035f860152611ea48282611e43565b91505060208301518482036020860152611ebe8282611e43565b9150506040830151611ed36040860182611e7b565b508091505092915050565b5f6020820190508181035f830152611ef68184611e8a565b905092915050565b5f80fd5b5f80fd5b7f4e487b71000000000000000000000000000000000000000000000000000000005f52604160045260245ffd5b611f3c82611ba2565b810181811067ffffffffffffffff82111715611f5b57611f5a611f06565b5b80604052505050565b5f611f6d611a9c565b9050611f798282611f33565b919050565b5f67ffffffffffffffff821115611f9857611f97611f06565b5b611fa182611ba2565b9050602081019050919050565b828183375f83830152505050565b5f611fce611fc984611f7e565b611f64565b905082815260208101848484011115611fea57611fe9611f02565b5b611ff5848285611fae565b509392505050565b5f82601f83011261201157612010611efe565b5b8135612021848260208601611fbc565b91505092915050565b5f805f806080858703121561204257612041611aa5565b5b5f61204f87828801611cd6565b945050602061206087828801611cd6565b935050604061207187828801611c29565b925050606085013567ffffffffffffffff81111561209257612091611aa9565b5b61209e87828801611ffd565b91505092959194509250565b5f80604083850312156120c0576120bf611aa5565b5b5f6120cd85828601611cd6565b92505060206120de85828601611cd6565b9150509250929050565b5f67ffffffffffffffff82111561210257612101611f06565b5b61210b82611ba2565b9050602081019050919050565b5f61212a612125846120e8565b611f64565b90508281526020810184848401111561214657612145611f02565b5b612151848285611fae565b509392505050565b5f82601f83011261216d5761216c611efe565b5b813561217d848260208601612118565b91505092915050565b5f805f6060848603121561219d5761219c611aa5565b5b5f6121aa86828701611cd6565b935050602084013567ffffffffffffffff8111156121cb576121ca611aa9565b5b6121d786828701612159565b925050604084013567ffffffffffffffff8111156121f8576121f7611aa9565b5b61220486828701612159565b9150509250925092565b7f4e487b71000000000000000000000000000000000000000000000000000000005f52602260045260245ffd5b5f600282049050600182168061225257607f821691505b6020821081036122655761226461220e565b5b50919050565b5f60608201905061227e5f830186611c98565b61228b6020830185611da3565b6122986040830184611c98565b949350505050565b7f4365727469666963617465204e465420646f6573206e6f7420657869737400005f82015250565b5f6122d4601e83611b6a565b91506122df826122a0565b602082019050919050565b5f6020820190508181035f830152612301816122c8565b9050919050565b5f81905092915050565b5f61231c82611b60565b6123268185612308565b9350612336818560208601611b7a565b80840191505092915050565b5f61234d8285612312565b91506123598284612312565b91508190509392505050565b7f4e487b71000000000000000000000000000000000000000000000000000000005f52601160045260245ffd5b5f61239c82611c0a565b91507fffffffffffffffffffffffffffffffffffffffffffffffffffffffffffffffff82036123ce576123cd612365565b5b600182019050919050565b5f819050815f5260205f209050919050565b5f6020601f8301049050919050565b5f82821b905092915050565b5f600883026124357fffffffffffffffffffffffffffffffffffffffffffffffffffffffffffffffff826123fa565b61243f86836123fa565b95508019841693508086168417925050509392505050565b5f819050919050565b5f61247a61247561247084611c0a565b612457565b611c0a565b9050919050565b5f819050919050565b61249383612460565b6124a761249f82612481565b848454612406565b825550505050565b5f90565b6124bb6124af565b6124c681848461248a565b505050565b5b818110156124e9576124de5f826124b3565b6001810190506124cc565b5050565b601f82111561252e576124ff816123d9565b612508846123eb565b81016020851015612517578190505b61252b612523856123eb565b8301826124cb565b50505b505050565b5f82821c905092915050565b5f61254e5f1984600802612533565b1980831691505092915050565b5f612566838361253f565b9150826002028217905092915050565b61257f82611b60565b67ffffffffffffffff81111561259857612597611f06565b5b6125a2825461223b565b6125ad8282856124ed565b5f60209050601f8311600181146125de575f84156125cc578287015190505b6125d6858261255b565b86555061263d565b601f1984166125ec866123d9565b5f5b82811015612613578489015182556001820191506020850194506020810190506125ee565b86831015612630578489015161262c601f89168261253f565b8355505b6001600288020188555050505b505050505050565b5f81519050919050565b5f82825260208201905092915050565b5f61266982612645565b612673818561264f565b9350612683818560208601611b7a565b61268c81611ba2565b840191505092915050565b5f6080820190506126aa5f830187611c98565b6126b76020830186611c98565b6126c46040830185611da3565b81810360608301526126d6818461265f565b905095945050505050565b5f815190506126ef81611ad8565b92915050565b5f6020828403121561270a57612709611aa5565b5b5f612717848285016126e1565b91505092915050565b7f4e487b71000000000000000000000000000000000000000000000000000000005f52601260045260245ffd5b5f6040820190506127605f830185611c98565b61276d6020830184611da3565b939250505056fea26469706673582212209389726f4f37265f952accb8af633eed8c1dc8a93ef119cd95b3cf97a61fbbe464736f6c63430008140033",
  "linkReferences": {},
  "deployedLinkReferences": {},
  "immutableReferences": {},
  "inputSourceName": "project/contracts/CertificateNFT.sol",
  "buildInfoId": "solc-0_8_20-bd7ae9b0cb83182ccae0713d1ef18e83b3c1e490"
}